:100000000C942A000C9455001895000018950000D7
:10001000189500001895000018950000189500002C
:10002000189500001895000018950000189500001C
:1000300018950000189500000C94D1001895000048
:1000400018950000189500001895000018950000FC
:10005000189500008FE58DBFC0E4E8E34E2E88E0E0
:100060008EBFD8E0F8E05F2EEEEFF7E0A0E6B0E05C
:10007000A89584B7082E877F84BF88E1992781BD22
:1000800091BD88278D933197E9F787E689B980E09C
:1000900080BD88E18AB9662478948BB780648BBF71
:1000A00000000C945000F894FFCF0F921F922F92F3
:1000B0003F924F925F927F92AF92BF920F931F93A6
:1000C0002F933F934F935F936F937F938F939F9360
:1000D000AF93BF93CF93DF93EF93FF938FB78F933C
:1000E000E0EFF1E00E9492000E9499008F918FBF93
:1000F000FF91EF91DF91CF91BF91AF919F918F9140
:100100007F916F915F914F913F912F911F910F912F
:10011000BF90AF907F905F904F903F902F901F9037
:100120000F9018950E94CD00802D11F005D0FACFC8
:1001300008958DE001D08AE09F939FB79F93AF937E
:10014000BF930F937F9390918A009832E1F3F894D4
:1001500090918A00939590938A0099270091890045
:10016000A0E6B0E0A00FB91F8C930395083209F404
:10017000002700938900559A7F910F91BF91AF910D
:100180009F919FBF9F9108953197F1F708956894CB
:1001900062F80895E89462F80895C89531960020B1
:1001A00008957F93AF93BF938F939F938FB78F9350
:1001B00090918A00992399F09A9590938A009927B3
:1001C000A0E6B0E080918800A80FB91F9C918395AC
:1001D000883209F48827809388009CB901C055981B
:1001E0008F918FBF9F918F91BF91AF917F91189504
:0601F00054657374000069
:00000001FF
